:040000000128FE2FA6
:100E0C0016302100970008003200910192019301E5
:100E1C0094019501960108006230320099009B0103
:100E2C009D0103309F009E01080087310A278731FE
:100E3C008731282787318731122787318731062759
:100E4C008731080022008C01203021008C002030DA
:100E5C0023008C0024008C0125008C0137302600E7
:100E6C008C003F3027008C00080087311B2787310E
:100E7C00F401740887315E27873109307406031D2D
:100E8C00482F492F4A2FF401A330F3005530890B1A
:100E9C004D2FF30B4D2F00000130F3007308F407B6
:100EAC000A307402031C5B2F5C2F3F2F3E2F01284E
:100EBC00F200CF2F21000C108C100C150C162200F8
:100ECC000C148C10FD2F21000C108C100C150C1612
:100EDC0022000C108C14FD2F21000C148C100C1102
:100EEC000C1622008C140C11FD2F21000C148C10EC
:100EFC000C110C1622008C100C15FD2F21000C145B
:100F0C008C140C110C1222000C150C12FD2F21004C
:100F1C000C148C140C110C1222000C110C16FD2F3D
:100F2C0021000C148C100C150C1222008C140C12B9
:100F3C00FD2F21000C148C100C150C1222008C109F
:100F4C000C16FD2F21000C108C140C110C16220009
:100F5C000C140C11FD2F21000C108C100C110C1604
:100F6C0022000C148C100C11FD2F21000C108C1075
:100F7C000C110C1622000C148C100C15FD2F2100DA
:100F8C000C108C100C110C1622000C108C140C1163
:100F9C00FD2F7208F000F1017108003A0319D72FE8
:100FAC00FD2F7008013A0319602F033A0319692FBA
:100FBC00013A0319722F073A03197B2F013A0319CF
:100FCC00842F033A03198D2F013A0319962F0F3AE8
:100FDC0003199F2F013A0319A82F033A0319B12FB4
:100FEC00013A0319BB2F073A0319C52FFD2F08002F
:040FFC0020003B2F67
:020000040001F9
:08000000FF3FFF3FFF3FFF3F00
:08000E00EC3FF33FFF3FFF3F11
:00000001FF
